{
  "_format": "hh-sol-artifact-1",
  "contractName": "WorkflowRegistry",
  "sourceName": "contracts/WorkflowRegistry.sol",
  "abi": [
    {
      "anonymous": false,
      "inputs": [
        {
          "indexed": true,
          "internalType": "address",
          "name": "owner",
          "type": "address"
        },
        {
          "indexed": false,
          "internalType": "string",
          "name": "workflowId",
          "type": "string"
        },
        {
          "indexed": false,
          "internalType": "bytes32",
          "name": "executionTxHash",
          "type": "bytes32"
        },
        {
          "indexed": false,
          "internalType": "string",
          "name": "storageTxHash",
          "type": "string"
        },
        {
          "indexed": false,
          "internalType": "uint256",
          "name": "timestamp",
          "type": "uint256"
        }
      ],
      "name": "ExecutionRecorded",
      "type": "event"
    },
    {
      "anonymous": false,
      "inputs": [
        {
          "indexed": true,
          "internalType": "address",
          "name": "owner",
          "type": "address"
        },
        {
          "indexed": false,
          "internalType": "string",
          "name": "workflowId",
          "type": "string"
        },
        {
          "indexed": false,
          "internalType": "bytes32",
          "name": "manifestHash",
          "type": "bytes32"
        },
        {
          "indexed": false,
          "internalType": "string",
          "name": "storageKey",
          "type": "string"
        },
        {
          "indexed": false,
          "internalType": "uint256",
          "name": "timestamp",
          "type": "uint256"
        }
      ],
      "name": "WorkflowRegistered",
      "type": "event"
    },
    {
      "inputs": [
        {
          "internalType": "address",
          "name": "owner",
          "type": "address"
        },
        {
          "internalType": "string",
          "name": "workflowId",
          "type": "string"
        }
      ],
      "name": "getExecutionCount",
      "outputs": [
        {
          "internalType": "uint256",
          "name": "",
          "type": "uint256"
        }
      ],
      "stateMutability": "view",
      "type": "function"
    },
    {
      "inputs": [
        {
          "internalType": "address",
          "name": "owner",
          "type": "address"
        },
        {
          "internalType": "string",
          "name": "workflowId",
          "type": "string"
        }
      ],
      "name": "getLatestExecution",
      "outputs": [
        {
          "internalType": "bytes32",
          "name": "executionTxHash",
          "type": "bytes32"
        },
        {
          "internalType": "string",
          "name": "storageTxHash",
          "type": "string"
        },
        {
          "internalType": "uint256",
          "name": "timestamp",
          "type": "uint256"
        }
      ],
      "stateMutability": "view",
      "type": "function"
    },
    {
      "inputs": [
        {
          "internalType": "address",
          "name": "owner",
          "type": "address"
        },
        {
          "internalType": "string",
          "name": "workflowId",
          "type": "string"
        }
      ],
      "name": "getWorkflow",
      "outputs": [
        {
          "internalType": "bytes32",
          "name": "manifestHash",
          "type": "bytes32"
        },
        {
          "internalType": "string",
          "name": "storageKey",
          "type": "string"
        },
        {
          "internalType": "uint256",
          "name": "createdAt",
          "type": "uint256"
        },
        {
          "internalType": "uint256",
          "name": "executionCount",
          "type": "uint256"
        }
      ],
      "stateMutability": "view",
      "type": "function"
    },
    {
      "inputs": [
        {
          "internalType": "string",
          "name": "workflowId",
          "type": "string"
        },
        {
          "internalType": "bytes32",
          "name": "executionTxHash",
          "type": "bytes32"
        },
        {
          "internalType": "string",
          "name": "storageTxHash",
          "type": "string"
        }
      ],
      "name": "recordExecution",
      "outputs": [],
      "stateMutability": "nonpayable",
      "type": "function"
    },
    {
      "inputs": [
        {
          "internalType": "string",
          "name": "workflowId",
          "type": "string"
        },
        {
          "internalType": "bytes32",
          "name": "manifestHash",
          "type": "bytes32"
        },
        {
          "internalType": "string",
          "name": "storageKey",
          "type": "string"
        }
      ],
      "name": "registerWorkflow",
      "outputs": [],
      "stateMutability": "nonpayable",
      "type": "function"
    }
  ],
  "bytecode": "0x608060405234801561001057600080fd5b506110fe806100206000396000f3fe608060405234801561001057600080fd5b50600436106100575760003560e01c80634cbe330b1461005c5780637bc56cd714610078578063a28373cf146100a8578063ade4609b146100c4578063f1a3003d146100f7575b600080fd5b6100766004803603810190610071919061086b565b610129565b005b610092600480360381019061008d919061095e565b610281565b60405161009f91906109d7565b60405180910390f35b6100c260048036038101906100bd919061086b565b6102ed565b005b6100de60048036038101906100d9919061095e565b610521565b6040516100ee9493929190610a91565b60405180910390f35b610111600480360381019061010c919061095e565b610639565b60405161012093929190610add565b60405180910390f35b604051806080016040528084815260200183838080601f016020809104026020016040519081016040528093929190818152602001838380828437600081840152601f19601f82011690508083019250505050505050815260200142815260200160008152506000803373ffffffffffffffffffffffffffffffffffffffff1673ffffffffffffffffffffffffffffffffffffffff16815260200190815260200160002086866040516101dd929190610b5a565b908152602001604051809103902060008201518160000155602082015181600101908161020a9190610dae565b5060408201518160020155606082015181600301559050503373ffffffffffffffffffffffffffffffffffffffff167f0aed99f4fe35b8d8f8820f530d63dc8e2022e93165368f6056ce6689e7c30d0286868686864260405161027296959493929190610ead565b60405180910390a25050505050565b6000600160008573ffffffffffffffffffffffffffffffffffffffff1673ffffffffffffffffffffffffffffffffffffffff16815260200190815260200160002083836040516102d2929190610b5a565b90815260200160405180910390208054905090509392505050565b60008060003373ffffffffffffffffffffffffffffffffffffffff1673ffffffffffffffffffffffffffffffffffffffff168152602001908152602001600020868660405161033d929190610b5a565b908152602001604051809103902090506000816002015403610394576040517f08c379a000000000000000000000000000000000000000000000000000000000815260040161038b90610f76565b60405180910390fd5b60018160030160008282546103a99190610fc5565b92505081905550600160003373ffffffffffffffffffffffffffffffffffffffff1673ffffffffffffffffffffffffffffffffffffffff16815260200190815260200160002086866040516103ff929190610b5a565b9081526020016040518091039020604051806060016040528086815260200185858080601f016020809104026020016040519081016040528093929190818152602001838380828437600081840152601f19601f8201169050808301925050505050505081526020014281525090806001815401808255809150506001900390600052602060002090600302016000909190919091506000820151816000015560208201518160010190816104b49190610dae565b506040820151816002015550503373ffffffffffffffffffffffffffffffffffffffff167fde6bf97b551c8fb901a47b80701f8f78e56c645b2cab005dbdace7eb4b0f20f187878787874260405161051196959493929190610ead565b60405180910390a2505050505050565b6000606060008060008060008973ffffffffffffffffffffffffffffffffffffffff1673ffffffffffffffffffffffffffffffffffffffff1681526020019081526020016000208787604051610578929190610b5a565b90815260200160405180910390209050806000015481600101826002015483600301548280546105a790610bd1565b80601f01602080910402602001604051908101604052809291908181526020018280546105d390610bd1565b80156106205780601f106105f557610100808354040283529160200191610620565b820191906000526020600020905b81548152906001019060200180831161060357829003601f168201915b5050505050925094509450945094505093509350935093565b60006060600080600160008873ffffffffffffffffffffffffffffffffffffffff1673ffffffffffffffffffffffffffffffffffffffff168152602001908152602001600020868660405161068f929190610b5a565b9081526020016040518091039020905060008180549050116106e6576040517f08c379a00000000000000000000000000000000000000000000000000000000081526004016106dd90611045565b60405180910390fd5b600081600183805490506106fa9190611065565b8154811061070b5761070a611099565b5b90600052602060002090600302019050806000015481600101826002015481805461073590610bd1565b80601f016020809104026020016040519081016040528092919081815260200182805461076190610bd1565b80156107ae5780601f10610783576101008083540402835291602001916107ae565b820191906000526020600020905b81548152906001019060200180831161079157829003601f168201915b50505050509150945094509450505093509350939050565b600080fd5b600080fd5b600080fd5b600080fd5b600080fd5b60008083601f8401126107f5576107f46107d0565b5b8235905067ffffffffffffffff811115610812576108116107d5565b5b60208301915083600182028301111561082e5761082d6107da565b5b9250929050565b6000819050919050565b61084881610835565b811461085357600080fd5b50565b6000813590506108658161083f565b92915050565b600080600080600060608688031215610887576108866107c6565b5b600086013567ffffffffffffffff8111156108a5576108a46107cb565b5b6108b1888289016107df565b955095505060206108c488828901610856565b935050604086013567ffffffffffffffff8111156108e5576108e46107cb565b5b6108f1888289016107df565b92509250509295509295909350565b600073ffffffffffffffffffffffffffffffffffffffff82169050919050565b600061092b82610900565b9050919050565b61093b81610920565b811461094657600080fd5b50565b60008135905061095881610932565b92915050565b600080600060408486031215610977576109766107c6565b5b600061098586828701610949565b935050602084013567ffffffffffffffff8111156109a6576109a56107cb565b5b6109b2868287016107df565b92509250509250925092565b6000819050919050565b6109d1816109be565b82525050565b60006020820190506109ec60008301846109c8565b92915050565b6109fb81610835565b82525050565b600081519050919050565b600082825260208201905092915050565b60005b83811015610a3b578082015181840152602081019050610a20565b60008484015250505050565b6000601f19601f8301169050919050565b6000610a6382610a01565b610a6d8185610a0c565b9350610a7d818560208601610a1d565b610a8681610a47565b840191505092915050565b6000608082019050610aa660008301876109f2565b8181036020830152610ab88186610a58565b9050610ac760408301856109c8565b610ad460608301846109c8565b95945050505050565b6000606082019050610af260008301866109f2565b8181036020830152610b048185610a58565b9050610b1360408301846109c8565b949350505050565b600081905092915050565b82818337600083830152505050565b6000610b418385610b1b565b9350610b4e838584610b26565b82840190509392505050565b6000610b67828486610b35565b91508190509392505050565b7f4e487b7100000000000000000000000000000000000000000000000000000000600052604160045260246000fd5b7f4e487b7100000000000000000000000000000000000000000000000000000000600052602260045260246000fd5b60006002820490506001821680610be957607f821691505b602082108103610bfc57610bfb610ba2565b5b50919050565b60008190508160005260206000209050919050565b60006020601f8301049050919050565b600082821b905092915050565b600060088302610c647fffffffffffffffffffffffffffffffffffffffffffffffffffffffffffffffff82610c27565b610c6e8683610c27565b95508019841693508086168417925050509392505050565b6000819050919050565b6000610cab610ca6610ca1846109be565b610c86565b6109be565b9050919050565b6000819050919050565b610cc583610c90565b610cd9610cd182610cb2565b848454610c34565b825550505050565b600090565b610cee610ce1565b610cf9818484610cbc565b505050565b5b81811015610d1d57610d12600082610ce6565b600181019050610cff565b5050565b601f821115610d6257610d3381610c02565b610d3c84610c17565b81016020851015610d4b578190505b610d5f610d5785610c17565b830182610cfe565b50505b505050565b600082821c905092915050565b6000610d8560001984600802610d67565b1980831691505092915050565b6000610d9e8383610d74565b9150826002028217905092915050565b610db782610a01565b67ffffffffffffffff811115610dd057610dcf610b73565b5b610dda8254610bd1565b610de5828285610d21565b600060209050601f831160018114610e185760008415610e06578287015190505b610e108582610d92565b865550610e78565b601f198416610e2686610c02565b60005b82811015610e4e57848901518255600182019150602085019450602081019050610e29565b86831015610e6b5784890151610e67601f891682610d74565b8355505b6001600288020188555050505b505050505050565b6000610e8c8385610a0c565b9350610e99838584610b26565b610ea283610a47565b840190509392505050565b60006080820190508181036000830152610ec881888a610e80565b9050610ed760208301876109f2565b8181036040830152610eea818587610e80565b9050610ef960608301846109c8565b979650505050505050565b7f576f726b666c6f7752656769737472793a20776f726b666c6f77206e6f74207260008201527f6567697374657265640000000000000000000000000000000000000000000000602082015250565b6000610f60602983610a0c565b9150610f6b82610f04565b604082019050919050565b60006020820190508181036000830152610f8f81610f53565b9050919050565b7f4e487b7100000000000000000000000000000000000000000000000000000000600052601160045260246000fd5b6000610fd0826109be565b9150610fdb836109be565b9250828201905080821115610ff357610ff2610f96565b5b92915050565b7f576f726b666c6f7752656769737472793a206e6f20657865637574696f6e7300600082015250565b600061102f601f83610a0c565b915061103a82610ff9565b602082019050919050565b6000602082019050818103600083015261105e81611022565b9050919050565b6000611070826109be565b915061107b836109be565b925082820390508181111561109357611092610f96565b5b92915050565b7f4e487b7100000000000000000000000000000000000000000000000000000000600052603260045260246000fdfea2646970667358221220fcbae737a07b530d0f22092da06aea20920ff378906d3a07fdf8336893ecdc9e64736f6c63430008140033",
  "linkReferences": {},
  "deployedLinkReferences": {}
}